:0400000002002132A7
:03000B0002015996
:0100130032BA
:03001B000204C616
:10007A007528FF752900752A02752B00752C0075E5
:10008A002D05752E00E4F52FF53075310675320110
:10009A0075332675340175354A75360175375D75C0
:1000AA003801753988753A01753BB8753C01753D5B
:1000BA00EE753E01F53FF540F541F542F543F5444D
:1000CA00F545F546F547F548F549F54AF54BF54C3A
:1000DA00F54DF54EF54FF550F551F552F553F554EA
:1000EA00F555F556F557F558F559F55AF55BF55C9A
:1000FA00755D02755E02755F027560027561027553
:10010A006202756302756402756502756602756737
:10011A0002756802756902756A02756B02756C026E
:10012A00756D02756E02756F0275700275710275D2
:10013A0072027573027574027575027576027577A7
:0F014A0002757802757902757A02C20002001EF2
:03001E00020515C3
:10015900C021C0E0C0F0C082C083C007C006C0058E
:10016900C004C003C002C001C000C0D075D008746B
:10017900F0B590030204A9E526700302044774F858
:1001890025265003020447E580F4F580E52E704CDE
:10019900E5262526242FF98782098783852A1A755A
:1001A9001B0075D00012079D75D008AE82AF838EF3
:1001B9001A8F1B751C00751D0090424075F00FE4E5
:1001C90075D0001207BA75D008AC82AD83AEF0FFC6
:1001D900C3E49CF522E49DF5230204247401B52EA1
:1001E9000280030203057403B5264DAF260FEF2FD6
:1001F900242FF98782098783852A1A751B0075D0F0
:100209000012079D75D008AE82AF838E1A8F1B75B9
:100219001C00751D0090424075F00FE475D0001266
:1002290007BA75D008AC82AD83AEF0FFC3E49CF584
:1002390022E49DF5230204247407B52656E52624F5
:10024900FA25E0242FF9870E09870FEE2EF582EFA4
:1002590033F583852A1A751B0075D00012079D7521
:10026900D008AE82AF838E1A8F1B751C00751D00D6
:1002790090424075F00FE475D0001207BA75D008A6
:10028900AC82AD83AEF0FFC3E49CF522E49DF52377
:10029900020424E5262526242FF9870E09870FADA8
:1002A900260DED2D242FF9870C09870DEC2EFEED77
:1002B9003F8E82C313C58213C582F583852A1A75B9
:1002C9001B0075D00012079D75D008AE82AF838ED2
:1002D9001A8F1B751C00751D0090424075F00FE4C4
:1002E90075D0001207BA75D008AC82AD83AEF0FFA5
:1002F900C3E49CF522E49DF5230204247402B52E7F
:100309000280030204247401B52659AF260FEF2F8A
:10031900242FF9870E09870F8E82EFC313C5821325
:10032900C582F583852A1A751B0075D00012079DB1
:1003390075D008AE82AF838E1A8F1B751C00751D90
:100349000090424075F00FE475D0001207BA75D0DD
:1003590008AC82AD83AEF0FFC3E49CF522E49DF5C1
:10036900230204247404B5264CAF261FEF2F242F33
:10037900F98782098783852A1A751B0075D00012AF
:10038900079D75D008AE82AF838E1A8F1B751C002E
:10039900751D0090424075F00FE475D0001207BA40
:1003A90075D008AC82AD83AEF0FFC3E49CF522E4BE
:1003B9009DF5238066AF261FEF2F242FF9870E099D
:1003C900870FE5262526242FF9870C09870DEC2EA2
:1003D900FEED3F8E82C313C58213C582F583852A3C
:1003E9001A751B0075D00012079D75D008AE82AF33
:1003F900838E1A8F1B751C00751D0090424075F085
:100409000FE475D0001207BA75D008AC82AD83AE7F
:10041900F0FFC3E49CF522E49DF52385228A852318
:100429008C74E2252B4013300010E52B243FF8A6ED
:1004390026E52B245DF8A62A052BC2008062740CE0
:10044900B5265DE580F4F580E529243FF9E7272401
:100459002FF98782098783E529245DF9870F8F1A88
:10046900751B0075D00012079D75D008AE82AF8349
:100479008E1A8F1B751C00751D0090424075F00F78
:10048900E475D0001207BA75D008AC82AD83AEF01E
:10049900FFC3E49CF522E49DF52385228A85238CFC
:1004A900D0D0D000D001D002D003D004D005D006DE
:1004B900D007D083D082D0F0D0E0D02132C0E0C0C4
:1004C900D075D01074F0B59002803C740CB5263705
:1004D900E52CFF04F52CE52D24FC500575270A8031
:1004E90003752764C3E52C95274016752C0005294B
:1004F90074E225294008E529243FF9E770037529A5
:1005090000758BEF758DD8D0D0D0E0327580F0753D
:1005190090F075A0FF75891175885075A88A7F00BC
:10052900C0071208C5858225D007E528B52503022D
:10053900061B74FFB52802800302061B8525248546
:100549002526D200E52670238F06EE24E14009EE28
:10055900243FF876000E80F28E07752B00752D0565
:10056900752C00752900752A02805D7408B5264628
:10057900E52A24FE5040852A82C0071208B2AB82C0
:10058900AC83ADF0FEC003C004C005C006900000F6
:10059900E4F5F0743F120699AB82AC83ADF0FEE549
:1005A9008124FCF5818B828C838DF0EE1208BD8548
:1005B900822AD00780127409B5260D7480252A4035
:1005C90007E52AFE25E0F52A740AB52609E52D6016
:1005D90005152D852D24740BB5260B74F7252D4093
:1005E90005052D852D24740DB52611E52E6005749C
:1005F90002B52E05752E018003752E00740EB526E1
:1006090011E52E60057401B52E05752E028003755E
:100619002E00AC247D007E008C828D838EF0C00775
:0B062900120852D00785252802052981
:0A09DE00EF28405860504030201010
:10063400FB7A20E4FCFDFEFFE5822582F582E5835A
:1006440033F583E5F033F5F0EB33FB4017DAE9805B
:1006540042E5822582F582E58333F583E5F033F5BF
:10066400F0EB33FBEC33FCED33FDEE33FEEF33FF05
:10067400EC951AED951BEE951CEF951D4013EC952A
:100684001AFCED951BFDEE951CFEEF951DFF4382B4
:1006940001DABEEB2212073CBC0003020884EF60BF
:1006A400FA30D502B2D1E583B4FF0302089AE58299
:1006B400B4FF0302089A258340072482400B0208F2
:1006C40084248314500302089AF582EA8DF0A4A8C6
:1006D400F0EA8EF0A428F8E435F0F9EB8DF0A428C4
:1006E400E935F0F9E433CA8FF0A429F9EA35F0FAD0
:1006F400EBF88EF0A429F9EA35F0FAE433FBEC8D3B
:10070400F0A429F9EA35F0FAE43BFBE88FF0A42AD7
:10071400FAEB35F0FBE433CCFD8EF0A42AFAEB358A
:10072400F0FBE43CFCED8FF0A42BFBEC35F0FC205B
:10073400E70312076A020863AA82AB83A2F7339223
:10074400D1F5826002D2F7ACF0E58124F9F8E6FD38
:1007540008E6FE0886F008E6A2F73392D5F5836032
:0607640002D2F7AFF02203
:06005000E478FFF6D8FD84
:10076A007804EC7011E58224F8500AF582E4C9CACB
:10077A00CBFCD8EF22EC7820058220E713D5820142
:10078A0022C3E933F9EA33FAEB33FBEC33FCD8EA58
:03079A00158222A3
:10002E007900E94400601B7A00900A08780175A0F7
:10003E0000E493F2A308B8000205A0D9F4DAF27531
:02004E00A0FF11
:10079D00E582851AF0A4C582C0F0851BF0A4D0F0C7
:0D07AD0025F0C583851AF0A42583F583226D
:100056007800E84400600A790175A000E4F309D845
:10006600FC7800E84400600C7900900001E4F0A3FD
:04007600D8FCD9FADF
:1007BA00FBC2D530E715D2D5E4C39582F582E4951C
:1007CA0083F583E495F0F5F0E49BFBE51D30E7172C
:1007DA00B2D5E4C3951AF51AE4951BF51BE4951CEA
:1007EA00F51CE4951DF51DEB12063430D513FBE418
:1007FA00C39582F582E49583F583E495F0F5F0E4F8
:10080A009B22AF827D007E008F1A751B00900064C8
:10081A00C007C006C00512079DAB82AC83D005D0C5
:10082A0006D007C3ED9BEE9C501D7B007C00A918E7
:10083A007A00C3EB99EC9A50070BBB00F10C80EEDF
:10084A000DBD00C40E80C122E5829009E893F5A08F
:09085A0075180A75820102080CF0
:1009E80014F61A92F09111D410903BB3F89B39FF8A
:10086300B98003EA13B34010EA2401FAE43BFBE442
:100873003CFC50047C800582BC000EBB000BBA001C
:1008830008E4F5F0F583F58222A2D1E582138CF01A
:1008930092F78B838A8222E4F583F58275F080F4E4
:0F08A300A2D11322E4F583F58275F0C0747F2291
:0D00210075817A12095EE582600302001EFF
:1008B200E4AC82FBFAF974860209547F8612096459
:1008C200F582227F00BF040040030209478FF00532
:1008D200F07D107E008006ED2DFDEE33FED5F0F7A3
:1008E200AB907C00EB5205EC5206ED4E70538F1923
:1008F20075900FFEFDBD040050448DF005F07B01A4
:100902007C008006EB2BFBEC33FCD5F0F7A9907A48
:1009120000E95203EA5204EB4C701E8E04EC2C25C3
:10092200E0FCE5192CFC3395E0FBEC24F8F582EBB6
:100932003409F583E493F582220D8D0680B7759014
:09094200F00F0208C77582FF22C4
:1009F800070401000805020A0906030B0C0D0E0F77
:10094B00FCABF0AA83A982749EC2D1F58212076A0E
:10095B00020863758200227F9E1209CC30D10302FC
:10096B000884C3EF9582500974FFF5F0F583F58287
:10097B0022790012098989828A838BF0EC226040EC
:10098B00F82582500274FFF582E824F8501ECCCB78
:10099B00CAF9E4CC24F85014CBCAF9E4CB24F850B0
:1009AB000BCAF9E4CA24F85003790022240860101A
:1009BB00F8C3EC13FCEB13FBEA13FAE913F9D8F1C8
:1009CB0022AA82AB83A2F73392D1F5826002D2F7CF
:0309DB00ACF0225B
:00000001FF
